:1020000000800020894600007346000073460000EF
:1020100000000000000000000000000000000000C0
:1020200000000000000000000000000073460000F7
:10203000000000000000000073460000DD460000C4
:1020400073460000734600007346000073460000AC
:10205000734600007346000073460000754600009A
:1020600073460000D1410000734600007346000033
:102070007346000073460000E14100007346000013
:10208000734600007346000073460000734600006C
:102090000000000073460000734600007346000015
:1020A000734600007346000073460000734600004C
:1020B0000000000010B5064C2378002B07D1054B1B
:1020C000002B02D0044800E000BF0123237010BDA4
:1020D00010010020000000002C97000008B5084BFC
:1020E000002B03D00748084900E000BF07480368F9
:1020F000002B03D0064B002B00D0984708BDC046EC
:10210000000000002C9700001401002008010020AE
:102110000000000010B5041C01F0E2FD201C10BD01
:102120000C4B10B51868002102F0B6FC0A4C201CBC
:1021300000F02FFB201C642100F022FB201C9021CA
:1021400000F018FB201C082100F004FB201C00F00C
:10215000FAFA10BD040000203001002010B5084C30
:102160002368002B06D0012B09D1064800F025FB7F
:10217000002303E0034800F0E6FA0123236010BDCA
:102180009C0300203001002010B5054C2368012B72
:1021900005D1044B186802F009FD2060F5E710BD79
:1021A000980300200400002010B502F0A5FA0C4BA3
:1021B00018600C4800F09EFA0B4B186802F0F6FC11
:1021C0000A4C2060012809D1322002F0CDFA2368A0
:1021D000012B03D1FFF7C2FFFFF7D6FF10BDC046AA
:1021E0002C01002030010020040000209803002072
:1021F00010B5DF4CA923032106225B00201C01F04F
:10220000E3FEDC4A231CF0331A60221C0023F43264
:102210001360D949221CF8321160D849221CFC32C3
:102220005160D7491360D160D64993605161D64956
:102230001361D161D54993615162D5491362D1626D
:10224000D44993625163D4491363D163D3499363EF
:102250005164D34913649364D164D24913655165C1
:10226000D1499365D165D14913665166D0499366CA
:10227000D166D04913675167CF499367D167BE22B2
:102280005200A350CD49C0225200A150C222520098
:10229000A350CB49C4225200A150C6225200A350E1
:1022A000C849C8225200A150CA225200A350C649B0
:1022B000CC225200A150CE225200A350C349D022BA
:1022C0005200A150D2225200A350C149D422520040
:1022D000A150D6225200A350BE49D8225200A1508C
:1022E000DA225200A350BC49DC225200A150DE2267
:1022F0005200A350B949E0225200A150E2225200FC
:10230000A350B749E4225200A150E6225200A35044
:10231000B449E8225200A150EA225200A350B24927
:10232000EC225200A150EE225200A350AF49F022FD
:102330005200A150F2225200A350AD49F4225200A3
:10234000A150F6225200A350AA49F8225200A150EF
:10235000FA225200A350A849FC225200A150FE22AA
:102360005200A350A54980229200A15081229200E0
:10237000A350A34982229200A15083229200A3502D
:10238000A04984229200A15085229200A3509E4928
:1023900086229200A15087229200A3509B49882256
:1023A0009200A15089229200A35099498A2292005A
:1023B000A1508B229200A35096498C229200A150EA
:1023C0008D229200A35094498E229200A1508F2218
:1023D0009200A350914990229200A1509122920024
:1023E000A3508F4992229200A15093229200A350B1
:1023F0008C4994229200A15095229200A3508A49C0
:1024000096229200A15097229200A35087499822C9
:102410009200A15099229200A350854A201C626329
:10242000844AA263844AE263844A2264844A6264DE
:10243000844AA264844AE264844A2265844A6265CA
:10244000844AA265844AE265844A2266844A6266B6
:10245000844AA266844AE266844A2267844A85499D
:102460006267854AA267854AE267221DD16784496F
:10247000221C0832D1678349221C883211608249AC
:10248000221C8C3211608149221C903211608049DB
:10249000221C943211607F49221C983211607E49BF
:1024A000221C9C3211607D49221CA03211607C49A3
:1024B000221CA43211607B49221CA83211607A4987
:1024C000221CAC3211607949221CB032116078496B
:1024D000221CB43211607749221CB832116076494F
:1024E000221CBC3211607549221CC0321160744933
:1024F000221CC43211607349221CC8321160724917
:10250000221CCC3211607149221CD03211607049FA
:10251000221CD43211606F49221CD83211606E49DE
:10252000221CDC3211606D49221CE03211606C49C2
:10253000221CE43211606B49221CE83211606A49A6
:10254000221CEC3211609622E2753222227603229E
:102550006283FF221204A37523752363E261A262E2
:102560006249634AE3622362636206F095FA10BD32
:102570003001002039280000612800004D2A0000A9
:10258000A5280000EB2800003D2900008D2900004F
:10259000012A0000012C0000472C00004F2B0000F6
:1025A0009F2B0000E52A0000972C0000072D00005B
:1025B000912D0000412E0000A52E0000C32E00002A
:1025C000272F0000452F0000772F0000D12F00009B
:1025D0004930000039310000A9300000A531000069
:1025E000F53100005D320000C932000067330000A1
:1025F000E73300007934000041350000D735000092
:1026000045360000C7360000413700009F37000004
:10261000FF37000071380000E73800004B39000038
:10262000C33B0000E13B0000CD3C0000D73C000074
:10263000D48D0000DB8D0000E18D0000E88D0000EE
:10264000F38D0000058E0000128E0000218E000028
:10265000D58E00002F8E0000428E00003D8E0000BF
:10266000998E0000478E0000558E00006B8E000092
:102670007A8E00009E8E0000828E0000918E0000F7
:10268000B88E0000B28E0000C08E0000E38E000005
:10269000CE8E0000DD8E0000EA8E0000F88E000075
:1026A000048F0000108F00005D8E00001D8F000061
:1026B000298F00003C8F0000508F00005F8F0000CA
:1026C000768F0000898F0000978F0000A88F000090
:1026D000B78F0000C68F0000CC8F0000D68F00009F
:1026E000E78F0000F78F0000049000001521000024
:1026F0000000002038B5037D041C002B02D1437D6F
:10270000002B1FD001F0F8FF216BE26A051C431A71
:10271000934202D8637D002B14D0A37DDB00E31825
:102720001A1CF4321268F03350101B68D10701D51F
:102730002258D35820189847236A2563013323620F
:102740000023637538BD00230362436203630123E2
:102750000375704708B500230362436203630B1CD3
:102760002E2900D92E238375C369017E836201F06F
:10277000FFFC08BD0023036243620363C175704719
:1027800010B50176041C01F0F3FC201C01F00EFBD7
:1027900010BD10B5041C01F0B3FA217E201CFFF718
:1027A000EFFF201C01F002FB10BD10B5041C01F06E
:1027B00007FD201C01F0FAFA10BD08B500230375CF
:1027C000FFF7F3FF08BDC943C9B2542907D88800F1
:1027D0000323081A5943FF300004084314E0A929D1
:1027E00008D85539CBB298000321181A4B43FF3053
:1027F0001B0208E05631CBB298000321181A4B4354
:10280000FF3000021B041843704710B50C1C8020D9
:10281000400001F00DFFC3B2E31ADA179B185340D2
:10282000DBB2D943C9B20A1C994200D91A1CD2B2F0
:10283000292AECD9C0B210BD38B5041C0025638B21
:10284000201CAB4206D9291CE269013501F0F6FBD8
:10285000ADB2F4E701F0AAFA3223E36238BD00001A
:1028600038B5036A041CDB070ED50025638B201CDA
:10287000AB4206D9291CE269013501F0DFFBADB29C
:10288000F4E701F093FA01E0FFF78FFFE07DFF210D
:10289000034B081A584304F031FD6430E06238BD40
:1028A000C207000038B5416A438B041C994202D22A
:1028B00089B2E26902E0C91A89B2002201F0BEFBC6
:1028C000201C01F073FA658B606A6900013004F026
:1028D00059FDE37DFF20C01A322361625843291C51
:1028E00004F00CFD0530E06238BD38B5436A041CC5
:1028F000002B04D1836AD9B2FFF787FFA062A36AD5
:10290000201CD9B2FFF75FFFA18C021C201C01F034
:1029100095FB201C01F04AFA658B606A291C013086
:1029200004F030FDE37DFF20C01A3223616258437A
:10293000291C04F0E3FC0530E06238BD38B5836A39
:10294000041CD9B2FFF761FF0025A062638BAB4284
:102950000CD9A36A201CD9B2FFF735FF291C021C31
:102960000135201C01F06AFBADB2EFE7201C01F03D
:102970001DFAE07DFF21044B081A584304F0BEFC09
:102980006430E06238BDC0468813000038B5036A81
:102990000025041CAB421DD0608B01F049FE051CD4
:1029A0008020400001F044FEC1B2201CFFF70BFF65
:1029B000A9B2021C201C01F041FB201C01F0F6F919
:1029C000E07DFF210D4B081A584304F097FC0A30B4
:1029D000E06238BD638BAB42DED98020400001F05D
:1029E00027FEC1B2201CFFF7EEFE291C021C013598
:1029F000201C01F023FBADB2ECE7C04688130000B9
:102A000038B5041C0025638BAB420FD980204000F1
:102A100001F00EFEC1B2201CFFF7D5FE291C021CDE
:102A20000135201C01F00AFBADB2ECE7201C01F0DF
:102A3000BDF9E07DFF21044B081A584304F05EFC09
:102A40006430E06238BDC04688130000F0B5244D04
:102A500091B007AF041C291C2222381C06F06EF826
:102A600002AE291C11222231301C06F067F8226ABE
:102A7000002A02D133780133A362A36A606ADDB20F
:102A8000072801D8013D00E00135335CEDB2AB42CF
:102A900004D10130112104F075FC61620026638BC2
:102AA000B34207D9311C201CE269013601F0C6FA95
:102AB000B6B2F4E7237E0021FF220093281C0B1CF2
:102AC00001F0CCFDC1B2201C01F052FB201C01F032
:102AD0006DF9626AA5625300FB5AE36211B0F0BD62
:102AE0001890000037B5041C0025638BAB4207D952
:102AF000291C201CE269013501F0A0FAADB2F4E70F
:102B0000606A227E7F38C317C01858404000404298
:102B10001923FF309A4200D8131C00920021FF2293
:102B200001F09CFDC1B2201C01F022FB201C01F031
:102B30003DF9636AFF21E07D01330B406362081AAF
:102B40000F23584304F0DAFB0530E06237BD38B597
:102B5000438B416A5A1E041C5200914201D9002243
:102B60004262626A201C511C0232D51A616201F075
:102B700027FBEB17ED185D40A9B2E269201C01F0BC
:102B80005DFA201C01F012F9E37DFF20C01A1E231C
:102B90005843618B04F0B2FB0A30E06238BD38B5AF
:102BA000438B416A5A1E041C5200914201D90022F3
:102BB0004262656A201C6A1C02356262ED1A01F0ED
:102BC000FFFAEB17ED185D40ADB2201C291CE2693D
:102BD00001F034FA618BE26901394D1BA9B2201C66
:102BE00001F02CFA201C01F0E1F8E37DFF20C01A6F
:102BF0001E235843618B04F081FB0A30E06238BD2C
:102C0000436A70B5D9B2041CFFF7DDFD0025061C30
:102C1000638B201CAB4206D9291C321C013501F004
:102C20000DFAADB2F4E701F0C1F8636AFF21E07D6F
:102C300001330B406362081A3223584304F05EFBF1
:102C40000130E06270BD38B5041C0025618B8D42F7
:102C500010D2280204F0A0FB636A1918C9B2201C24
:102C6000FFF7B1FD291C021C0135201C01F0E6F91B
:102C7000ADB2EBE7201C01F099F8636AFF21E07D1B
:102C800001330B406362081A3223584304F036FBC9
:102C90000130E06238BD70B50621041C006A04F002
:102CA00071FBCBB201255B080D401E1C002D01D02D
:102CB000002519E0638BAB4208D9A91989B2201C01
:102CC000E269033501F0BAF9ADB2F3E7201C01F077
:102CD0006DF8E37DFF21FA20CB1A4000584304F041
:102CE0000DFB3230E0620DE0638BAB4208D9A919CD
:102CF00089B2201C0022033501F0A0F9ADB2F3E740
:102D00000123E36270BDF8B50621041C006A04F0DB
:102D100039FBCBB201255B080D401E1C002D01D0F4
:102D2000002520E0638BAB420FD9636A201C591940
:102D3000C9B2FFF748FDAF19BFB2021C391C201CF5
:102D4000033501F07BF9ADB2ECE7201C01F02EF861
:102D5000E37DFF21FA20CB1A4000584304F0CEFA5D
:102D60003230E0620DE0638BAB4208D9A91989B219
:102D7000201C0022033501F061F9ADB2F3E7012315
:102D8000E362636A0133DBB26362F8BD00000000F6
:102D9000F0B5C36989B003931B0C0593039B041C16
:102DA0001B0A06930026638BB34232D9236AFF25A0
:102DB000F01805F01FFE03F0CFF81E4B1C4A04F07C
:102DC000EDFF1D4A1D4B04F087FB05F0A1FD071C1C
:102DD0000598291C2840784304F090FAC0B204906A
:102DE0000698291C2840784304F088FAC0B207905E
:102DF0000398291C2840784304F080FAC0B2009060
:102E0000311C201C049A079B013601F0F4F8B6B27D
:102E1000C9E7201C00F0CAFFE37DFF21AF20CB1AD9
:102E20004000584304F06AFA2330E06209B0F0BD74
:102E30000000000000C05F40000000000000604093
:102E400038B5436A041C002B12D1FFF7AEFC658B2A
:102E5000042D05D9281C052104F050FA80B203E0A6
:102E60000120011C012D00D9690801F0EDFB606211
:102E7000608B01F0DDFBA26A81B2201C01F0DEF85C
:102E8000201C00F093FF636AE07D013B6362FF2139
:102E9000034B081A584304F031FA3230E06238BD6F
:102EA000C207000010B5041C8020400001F0C0FBE8
:102EB000C1B2201CFFF787FCA062201CFFF7C0FFF7
:102EC00010BD37B5041C0025638BAB4211D9291CFA
:102ED000201C01F0EDF802020304C0B2400800908B
:102EE000291C520E5B0E201C013501F084F8ADB296
:102EF000EAE7032001F09CFB002807D1608B01F07A
:102F000097FBA26A81B2201C01F098F8201C00F007
:102F10004DFFE07DFF21081A6423584304F0EEF9C9
:102F20006430E06237BD10B5041C8020400001F021
:102F30007FFBC1B2201CFFF746FCA062201CFFF7FC
:102F4000C0FF10BD10B5041C01F03AF9608B01F010
:102F50006FFBE26981B2201C01F070F8201C00F0C8
:102F600025FFE07DFF21081AC823584304F0C6F965
:102F70000A30E06210BD37B5041C0025638BAB42FC
:102F800007D9291C201CE269013501F057F8ADB2C0
:102F9000F4E70A2001F04CFB07280CD1608B01F00C
:102FA00047FBFF2381B200931A1C201C01F023F879
:102FB0001423E36208E0E07DFF21081AC823584388
:102FC00004F09CF91430E062201C00F0EFFE37BDE5
:102FD00073B5041C0025638BAB4207D9291C201C48
:102FE000E269013501F02AF8ADB2F4E70A2001F0F8
:102FF0001FFB002503281ADC668B0120022E04D952
:10300000301C032104F07AF980B285420CDA301CBE
:1030100001F00EFBFF2381B20093201C1A1C013526
:1030200000F0E9FFADB2E7E71423E36208E0E07DDA
:10303000FF21081A7823584304F060F90F30E0624A
:10304000201C00F0B3FE73BD38B5036A0125041CD3
:103050001D4001D000250DE0638BAB4207D9291C30
:10306000201CE269013500F0E9FFADB2F4E714235A
:10307000E36213E0638BAB4207D9291C201C0022BA
:10308000013500F0DBFFADB2F4E7E07DFF21054B39
:10309000081A584304F032F93230E062201C00F084
:1030A00085FE38BDC207000070B5041C0025638B87
:1030B000AB4207D9291C201C0022013500F0BEFFBD
:1030C000ADB2F4E7E67D0A21301C04F017F9656A19
:1030D000C0B201304000854212D201231D4032238C
:1030E000002D0BD1638BAB4207D9291C201CE26950
:1030F000013500F0A3FFADB2F4E71423E3620AE068
:10310000301C0A2104F03EF90923C9B2591A7D2363
:1031100059436431E162201C00F048FEE07D0A2141
:1031200004F0ECF8656AC1B201354900281C03318E
:1031300004F028F9616270BD38B5036A0125041CEA
:103140001D4001D0002512E0638BAB420CD9236AED
:10315000201CD9B2FFF737FB291C021C0135201CAB
:1031600000F06CFFADB2EFE71423E36213E0638B72
:10317000AB4207D9291C201C0022013500F05EFF5C
:10318000ADB2F4E7E07DFF21054B081A584304F087
:10319000B5F83230E062201C00F008FE38BDC046B1
:1031A000C207000038B5036A041CDB0714D50025EC
:1031B000638BAB420CD9236A201CD9B2FFF703FB07
:1031C000291C021C0135201C00F038FFADB2EFE7CE
:1031D000201C00F0EBFD01E0FFF7E7FAE07DFF21A6
:1031E000034B081A584304F089F86430E06238BD94
:1031F000C207000073B5041C0025668BB54209D2D6
:10320000FF23291C0093201C1A1C013500F0F3FE3B
:10321000ADB2F2E7656AE269A9B2201C00F00EFFC8
:10322000311C681C04F0AEF8E26989B2201C00F081
:1032300005FF201C00F0BAFD658B606A291C013077
:1032400004F0A0F8E37DFF20C01A1E2361625843FA
:10325000291C04F053F80A30E06273BDF7B5041C72
:103260000025668BB54207D2291C201CE269013576
:1032700000F0E4FEADB2F4E7676AFF25B9B22A1C9C
:103280002B1C0095201C00F0B6FE781C311C04F0AD
:1032900079F82A1C2B1C89B20095201C00F0ABFE8B
:1032A000201C00F083FD668B606A311C013004F045
:1032B00069F8E07D61622D1A1E206843311C04F01C
:1032C0001DF80A30E062F7BD436AF7B5041C002B15
:1032D00010D1836AD9B2FFF776FA618B021C0139EB
:1032E00089B2201C00F0AAFEA36A201CD9B2FFF705
:1032F0008CFAA0620025666AB5420CD2A36A201C33
:10330000D9B2FFF760FA291C021C0135201C00F01D
:1033100095FEADB2EFE7618B701C04F033F8FF252A
:103320008FB20095B1B2201C2A1C2B1C00F063FE4A
:103330002A1C2B1C391C0095201C00F05CFE201C54
:1033400000F034FD668B606A311C013004F01AF81D
:10335000E07D61622D1A1E206843311C03F0CEFF10
:103360000A30E062F7BDF7B5041C0025668BB54254
:1033700011D22802311C04F00FF8236A1918C9B2BF
:10338000201CFFF720FA291C021C0135201C00F02C
:1033900055FEADB2EAE7676AFF25B9B22A1C2B1CBD
:1033A0000095201C00F027FE781C311C03F0EAFF7A
:1033B0002A1C2B1C89B20095201C00F01CFE201C2E
:1033C00000F0F4FC668B606A311C013003F0DAFF18
:1033D000E07D61622D1A1E206843311C03F08EFFD0
:1033E0000A30E062F7BDF0B5092185B0041C006A1F
:1033F00003F0C8FFCBB20F1C03930026658BAE42CF
:1034000007D2311C201CE269013600F017FEB6B26B
:10341000F4E7039B082B1AD0FB0715D4676AFF2635
:10342000321C331CB9B2201C009600F0E4FD781C5D
:10343000291C03F0A7FF331C89B20096201C321C04
:1034400000F0D9FD142300E01E23E3620FE0606A60
:10345000291C013003F096FFE37DFF20C01A1E23D4
:1034600061625843291C03F049FF0A30E062201CC6
:1034700000F09CFC05B0F0BDF7B5041C0921006A02
:1034800003F080FF00260D1CCFB2636A9E420CD26F
:10349000A36A201CD9B2FFF796F9311C021C013631
:1034A000201C00F0CBFDB6B2EFE7581C668B082F4E
:1034B0002BD0311C9FB203F065FF8EB2EB0710D406
:1034C000FF25201C391C2A1C2B1C009500F093FDA5
:1034D0002B1C0095201C311C2A1C00F08CFD142391
:1034E00011E0A36A201CD9B2FFF76DF9391C021C48
:1034F000201C00F0A3FD002300931A1C201C311C8B
:1035000000F079FD1E23E36216E0311C03F03AFF60
:10351000E37DFF20C01A0A2361620D1C5843311C51
:1035200003F0ECFE0130E062002D05D1A36A201CFF
:10353000D9B2FFF76AF9A062201C00F037FCF7BD92
:10354000F7B5041C0025668BB54209D2FF23291C60
:103550000093201C1A1C013500F04DFDADB2F2E7BE
:10356000656A311C681C03F00DFFA8B20F1C000235
:10357000311C03F011FF236A1918C9B2201CFFF790
:1035800022F9A9B2021C201C00F058FDB8B2618BD0
:10359000000203F001FF236A1918C9B2201CFFF7CB
:1035A00012F9B9B2021C201C00F048FD201C00F0EA
:1035B000FDFB658B606A291C013003F0E3FEE37DAF
:1035C000FF20C01A1E2361625843291C03F096FE97
:1035D0000A30E062F7BDF7B5041C0025668BB542E2
:1035E00007D2291C201CE269013500F027FDADB28D
:1035F000F4E7676A0025B9B22A1C2B1C0095201C31
:1036000000F0F9FC781C311C03F0BCFE2A1C2B1CBA
:1036100089B20095201C00F0EEFC201C00F0C6FBD7
:10362000658B606A291C013003F0ACFEE37DFF204E
:10363000C01A1E2361625843291C03F05FFE0A3042
:10364000E062F7BDF7B5041C0025668BB54211D2C8
:103650002802311C03F0A0FE236A1918C9B2201CED
:10366000FFF7B1F8291C021C0135201C00F0E6FC14
:10367000ADB2EAE7676A0025B9B22A1C2B1C009597
:10368000201C00F0B8FC781C311C03F07BFE2A1CC7
:103690002B1C89B20095201C00F0ADFC201C00F012
:1036A00085FB658B606A291C013003F06BFEE37DAE
:1036B000FF20C01A1E2361625843291C03F01EFE1E
:1036C0000A30E062F7BD38B5436A041C002B02D013
:1036D000428B934205D1A36A201CD9B2FFF795F81B
:1036E000A062656A628BA36A954207D2D9B2201C98
:1036F000FFF769F8A9B2021C201C0AE05200013A47
:10370000D9B2201C551BFFF75EF8ADB2021C291C74
:10371000201C00F093FC201C00F048FB658B606AC5
:103720006900013003F02EFEE37DFF20C01A322332
:1037300061625843291C03F0E1FD0530E06238BDA9
:1037400037B5041C0025638BAB4215D9636AEA18B0
:1037500003231340012B05D8201C291CA26A00F06A
:103760006DFC06E0FF230093201C291C1A1C00F0AE
:1037700042FC0135ADB2E6E7201C00F017FB626A9F
:103780000323013213406362E37DFF20C01A1E232E
:103790005843618B03F0B2FD0A30E06237BD37B5A4
:1037A000041C0025638BAB4216D9636AEA18032315
:1037B0001340012B05D800230093201C291CFF2255
:1037C00005E0FF2300220093201C291C131C013557
:1037D00000F011FCADB2E5E7201C00F0E7FA626AE8
:1037E0000323013213406362E37DFF20C01A642388
:1037F0005843618B03F082FD6430E06237BD70B5E1
:10380000458B041C013DADB2002D0CD06E1EB6B22E
:10381000311C201C00F04CFC291C021C201C00F058
:103820000DFC351CF0E7636A002B0ED1A36A201C47
:10383000D9B2FEF7EAFF011CA062201CFEF7C3FF0D
:10384000291C021C201C00F0F9FB201C00F0AEFA21
:10385000626A0123013213406362E37DFF20C01AD4
:1038600032235843618B03F049FD3230E06270BD72
:1038700037B5041C0025638B9D4211D2291C201CE6
:1038800000F016FC02020304C0B240080090291C9C
:10389000520E5B0E201C013500F0ADFBADB2EAE725
:1038A000616A994204D302225242511A5B00C9183C
:1038B000E26989B2201C00F0C1FB201C00F076FAFE
:1038C000658B606A691E0130490003F05BFDE37D92
:1038D000FF20C01A0A2361625843291C03F00EFD21
:1038E0000A30E06237BD37B5041C0025638BAB425C
:1038F00011D9291C201C00F0DBFB02020304C0B21A
:1039000040080090291C520E5B0E201C013500F06F
:1039100072FBADB2EAE7E269A18C201C00F08EFBDD
:10392000201C00F043FA658B606A291C013003F00B
:1039300029FDE37DFF20C01A0A2361625843291C38
:1039400003F0DCFC0A30E06237BDF0B5041C87B040
:103950000025638B201CAB4210D9291C00F0A8FB6A
:1039600002020304C0B240080090291C520E5B0EF4
:10397000201C013500F03FFBADB2EAE7012100F069
:1039800097FB0021051C201C00F092FBFF231B0469
:10399000061C1E402B405B0C0121360C201CF61827
:1039A00000F086FB0021071C201C00F081FBFF219A
:1039B0000902051C0D403940490A2D0A6D18201CCA
:1039C000012100F075FB0021071C201C00F070FB9A
:1039D000FFB27F083F18EDB2F6B2FFB22B1C009782
:1039E000201C0021321C00F006FB0125618B4B1EC0
:1039F0009D425DDA6F1EBFB2391C201C00F058FBDF
:103A00006E1CB6B20390311C201C00F051FB291C27
:103A10000490201C00F04CFB039A0499FF231B0424
:103A200019401A40090C520C8A18034052081B0C0A
:103A3000D318DBB2391C201C039300F039FB311C76
:103A40000490201C00F034FB291C0590201C00F081
:103A50002FFB049A0599FF231B0219401A40090AFB
:103A6000520A8A18034052081B0AD318DBB2391CC9
:103A7000201C049300F01CFB311C071C201C00F0D0
:103A800017FB291C0590201C00F012FB059AFF2350
:103A90001F407F081340FB185B081B18DBB2009324
:103AA000291C201C039A049B00F0A5FA351C9DE7F5
:103AB000023989B2201C00F0FBFA618B051C013928
:103AC00089B2201C00F0F4FA618BFF231B04061C52
:103AD0001E4002392B409B0C89B2360C201CF61874
:103AE00000F0E6FA618B071C013989B2201C00F056
:103AF000DFFAFF210902051C0D403940890A2D0A11
:103B00006D18618B201C023989B200F0D1FA618BEB
:103B1000071C013989B2201C00F0CAFAFFB2618B80
:103B2000BF083F18EDB2F6B20139FFB22B1C89B2C3
:103B30000097201C321C00F05EFA657D002D12D02B
:103B4000002534E09D4217DA0A2000F071FD0028BC
:103B500007D1608B00F06CFDA26A81B2201C00F0DE
:103B60006DFA0135ADB2608B01231328EAD9142117
:103B700003F0C4FB83B2E5E7201C00F017F9E37DF6
:103B8000FF20C01A14235843618B03F0B7FB143095
:103B9000E06207B0F0BD8542EEDA301C00F048FD6F
:103BA000A26A81B2201C00F049FA0135ADB2668BE1
:103BB0000120092EEFD9301C0A2103F09FFB80B2AF
:103BC000E9E710B5041C8020400000F031FDC1B2CF
:103BD000201CFEF7F8FDA062201CFFF7B6FE10BD0A
:103BE00037B5041C0025638BAB4212D9636A201CD5
:103BF000EA1803231A4000230093291C012A01D844
:103C0000FF2201E01A1CFF23013500F0F4F9ADB2E8
:103C1000E9E7201C00F0CAF8626A0323013213406E
:103C20006362E37DFF20C01A64235843618B03F075
:103C300065FB6430E06237BDF0B5C56987B02B0223
:103C40001B0E03932B041B0E0493049AEBB2041C6B
:103C5000E8B29A4200D9101C039B984200DA181C63
:103C600003F09AFB00270590638BFF26BB421ED909
:103C700005990020314000F0E7FC039A2E40131A0A
:103C8000049A111ADA43301AD2171340C643DAB233
:103C9000F617CB43DB1730401940C0B2CBB20090CF
:103CA000391C201C013700F0A6F9BFB2DCE7201C4C
:103CB00000F07CF8E37DFA20F31A40005843311CF1
:103CC00003F01CFB0A30E06207B0F0BD08B5032129
:103CD000FFF7B2FF08BD08B50621FFF7ADFF08BD2D
:103CE00010B5041C8068002801D004F01DFF0620D8
:103CF0002056002802DB002100F0CEFE201C10BD63
:103D000010B5041C06202056002807DB012100F016
:103D1000C3FE06202056002100F018FF0123637027
:103D200010BD70B5041C80680E1C002801D004F082
:103D3000FBFE237BE57BED1A6B1E9D41033575432E
:103D4000ADB2A580281C04F0E5FEA060002805D0D7
:103D500000212A1C04F0FBFE668001E0A080608048
:103D600070BD037B70B5C57B8C11ED1A6B425D4154
:103D70000A1103238E101E401C401A400B4046734C
:103D80008373FF2600238E425B4103708368EDB28C
:103D9000C4730273002B07D0A21A53425341AB42A3
:103DA00002D04188FFF7BDFF70BD00008168F8B503
:103DB000041C002900D1E5E000F0A4FC2369C01A2E
:103DC0002C23FF339842F7D972B60623E3561827FF
:103DD0005F436D4DA168EB195B68A6887D5D01228C
:103DE0009A408E194B1C08786849ED016F18684994
:103DF0006D182178002900D14DE080213A60C0463D
:103E0000C046C046C046C046C046C046C04608423E
:103E100015D0C046C046C046C046C046C046C04693
:103E2000C046C046C046C046C046C046C046C04662
:103E3000C046C046C046C046C0462A6014E02A605C
:103E4000C046C046C046C046C046C046C046C04642
:103E5000C046C046C046C046C046C046C046C04632
:103E6000C046C046C046C046490809D0C046C04604
:103E7000C046C046C046C046C046C046C046BDE774
:103E8000B34200D37AE018780133B6E7B34200D3E7
:103E900074E01878013380213A60C046C046C046BD
:103EA000C046C046C046C046C046C046C046C046E2
:103EB00008421CD0C046C046C046C046C046C046A8
:103EC000C046C046C046C046C046C046C046C046C2
:103ED000C046C046C046C046C046C046C046C046B2
:103EE000C046C046C046C046C0462A601BE02A60A5
:103EF000C046C046C046C046C046C046C046C04692
:103F0000C046C046C046C046C046C046C046C04681
:103F1000C046C046C046C046C046C046C046C04671
:103F2000C046C046C046C046C046C046C046C04661
:103F3000C046C046C046C046C046C046C046C04651
:103F4000C046C046C046C046C046C046C046C04641
:103F5000C046C046C046C046C046C046C046C04631
:103F6000C046C046C046490800D18FE7C046C0469B
:103F7000C046C046C046C046C0468DE762B600F0A7
:103F8000C1FB2061F8BDC0464C90000018440041C0
:103F90001444004138B54378041C0D1C002B06D096
:103FA00006202056002802DB002100F075FD637812
:103FB000A571002B07D0281C012100F06DFD281CE5
:103FC000002100F0C3FD38BD70B5041C00200E1C9C
:103FD0006070191CE071A0602061201C151CFFF7A7
:103FE000C0FE311C201CFFF79CFE201C291CFFF783
:103FF000D1FF201C70BDF0B505AC257844888C42FB
:104000001BD9C479002C05D0624363436543120A6F
:104010001B0A2D0AC47B077B8668A74203D10324B1
:104020006143711803E08900711800260E55047B66
:104030000A55427B8B54837BCD54F0BD4388F7B542
:104040008B4234D9C379150C140A002B05D1E4B284
:104050000094D4B2EDB2A4460BE0FF2635403440C4
:1040600016405C435E435D43240A360A2D0A0094E1
:10407000B446077BC67B0197019C8768B44203D195
:10408000032359437F180AE089007F18120EBE19D6
:10409000002B01D1D3B201E053431B0A3370037BE1
:1040A000009EFD54437B6246FE54837BFA54F7BD69
:1040B000F7B54288031C00208A4258D9187BDA7B66
:1040C0000090DC7998685E7B9F7B009B9A4220D1B0
:1040D00003254D434519A85C002C14D0211C000277
:1040E00003F00CF900040090A85D211C000203F00D
:1040F00005F906020098211C0643E85D000203F062
:10410000FDF8304333E0AB5D00041B021843EB5D68
:104110002CE08D004519A85C002C1ED0211C00024B
:1041200003F0ECF8009A00060190A85C211C000244
:1041300003F0E4F8019B00040343E85D211C000246
:10414000019303F0DBF8019F211C0743A85D0002E7
:1041500003F0D4F80002384309E0009A0006AB5C93
:104160001B041843EB5D1843AB5D1B021843FEBDF7
:1041700070B50B1C4D1CC179EDB2041C8D421BD0D7
:1041800001398668C9B20020814208D0FF2B01D1D5
:104190000A4801E02802013803F0FEF880B2331C1F
:1041A0009A1BA18892B2914205D91A784243121201
:1041B0001A700133F4E7E57170BDC046FFFF0000DF
:1041C00008B500218288806804F0C1FC08BD0000A9
:1041D00008B5024800F0A4F908BDC046A0030020BD
:1041E00008B5024800F09CF908BDC04664040020F0
:1041F000F7B5164F1649381C00F044F81549164813
:1042000000F040F81549164800F03CF815491648EA
:1042100000F038F81549164800F034F8154D03261B
:104220000124281C144900F02DF8391C0096231C89
:1042300001940022114800F04FF90096291C0194C6
:104240001F221E230E4800F047F9F7BD2C05002061
:1042500000080042000C004230050020001000421F
:1042600034050020001400422805002000180042F8
:10427000380500203C050020001C0042A00300205F
:104280006404002001607047F7B508AC2678046824
:104290009D1E27686C1EA541ECB2920705683A4343
:1042A00027063A432A600268072529405068B5016D
:1042B000002C00D05C03294301430C435460F7BD3C
:1042C00030B50368C0251C68AD0312052A4022439F
:1042D000C024A402090421401143196003685A68EC
:1042E00014435C6030BD036801211A680A431A60F8
:1042F0000268116801231942FBD1D1691942F8D132
:104300007047036802211A680A431A600268D36979
:104310009907FCD4704703681A7ED10702D41A7E2D
:104320009107FCD57047036800225A8370470368E1
:10433000187E4007C00F70470368187EC009704799
:1043400003688022197E52420A431A767047036836
:10435000188DC0B2704703681A7E01200242FBD05C
:10436000198570470368224A30B5934211D0214A1B
:10437000934211D0204A934211D0204A934211D047
:104380001F4A934211D01F4A934230D10E23192263
:104390000DE0092314220AE00A23152207E00B236B
:1043A000162204E00C23172201E00D231822DCB2B0
:1043B000154901209B08A0409B0008605B18032062
:1043C000C021890004405D58E000FF248440A543DB
:1043D0002C1CC0258540281C204358508023DB011D
:1043E0001A430A4B5A805A7852B2002AFBDB30BD7E
:1043F00000080042000C004200100042001400427D
:1044000000180042001C004200E100E0000C0040E7
:10441000F8B5041C151C0E1C1F1CFFF7A3FF201C65
:10442000FFF761FFB1001C220A4069072368090CED
:104430000A431A60226884239375012E1AD1082139
:10444000012D00D110210C4B79431868C00002F0F7
:1044500055FF236807219A890140D2044903D20CF1
:104460000A439A8123680004C20C9889400B4003D8
:1044700010439881F8BDC046080000200120704715
:1044800008B50368014ADB69984708BD13040000BA
:1044900010B5041C0069FFF726FF201C143001F042
:1044A00026FC10BD08B50069FFF735FF08BD08B54B
:1044B000143001F037FC08BD08B5143001F03BFCA6
:1044C00008BD08B5143001F019FC08BD08B5006935
:1044D000FFF741FF012008BDF7B51D1C08AB1B7895
:1044E000041C009309AB1B78161C01930023436046
:1044F000FA239B008360094B0F1C083303601430C0
:1045000001F0D6FB009A231CC03327619A70019AF0
:104510001E705D70201CDA70FEBDC04670940000F5
:1045200010B5041C0069FFF702FF002807D02069BE
:10453000FFF70DFF011C201C143001F0C6FB2069A1
:10454000FFF7FAFE002805D02069FFF7F9FE206981
:10455000FFF7E9FE10BDF023081C18403038434235
:1045600058417047F0231B01194080239B0099425A
:104570000CD0C0239B00994206D080235B0005200D
:10458000994204D0002002E0072000E00620704796
:104590000F231940012905D002394B424B4102201B
:1045A000C01A00E000207047F0B5031C85B00391ED
:1045B000C033041C182718783B1C43431B4E0821AA
:1045C000F3185956151C00F009FB231CC133187849
:1045D00008214743F619715600F000FB01210A1C1F
:1045E000039B2069FFF714FF291C201CFFF7BAFF6B
:1045F000291C071C201CFFF7CBFF291C061C201CB4
:10460000FFF7A9FF391C0090331C20690122FFF736
:104610003BFE231CC3331978013B1A782069FFF74E
:104620004FFE2069FFF76DFE05B0F0BD4C90000015
:10463000002110B5041E8C4204D004F02DFB211C77
:1046400002F000FF081C10BD10B5041E8C4203DAF6
:10465000081AFFF7EDFF0419201C10BD38B5049DA2
:104660001C1C401AEB1A5843511A02F095FE00190F
:1046700038BDFEE708B5034B1B68002B00D09847F8
:1046800008BDC0464005002038B50F490F4CA14277
:1046900004D100F0A7F800F085F80BE00C4D8D4236
:1046A000F7D00023CA18E818A24204D200680433E5
:1046B0001060F7E7FEE79042EBD0064B064A9342C4
:1046C000E7D2002204C3F9E7000000201001002017
:1046D0003097000010010020400B002008B500F0CA
:1046E0005EF8002801D100F04FF808BD014B1860BA
:1046F0007047C04640050020014B18687047C0460F
:1047000044050020F7B5144D144CA968144862689C
:1047100003685201D20F2E1C271C8446B0687D68A6
:1047200001906D016046ED0F0468AA4203D02A1C77
:10473000231C0199F2E7A342FAD101988142F7D3F1
:104740000548D2184068FA23411A06489B0048439E
:104750005343000DC018FEBD10E000E000ED00E086
:10476000440500205555000070B5041E08D0054BC7
:104770001D681E1C00F012F833685B1BA342F9D3BE
:1047800070BDC0464405002008B5034B1A680132CD
:104790001A6001F053FA08BD44050020704700205C
:1047A0007047704710B500F0D1F804F08DF9FFF7AD
:1047B000F8FF0120FFF7D8FF084C201C00F082FC16
:1047C000201C00F0F7FCFDF7ABFCFDF7EDFC044B03
:1047D000002BFAD000E000BFF7E7C046F709002041
:1047E0000000000070B5494A1E21536802208B4327
:1047F0000343474953608B69082423438B61454C2D
:10480000454B9C829C8A20439882101CDA6894074E
:10481000FCD5424A012414701478E50704D53F4CB6
:10482000647864B2002CF7DB01249460547864B29D
:10483000002CFBDB3A4D394C6560547864B2002C97
:10484000FBDB8225354CED016580547864B2002C89
:10485000FBDB02249C84DC68E606FCD5314D2E4C43
:10486000E562DD682C4CEE06FBD5A58C2E4E35435B
:10487000A584DD68284CEE06FBD5A58C02263543C1
:10488000A584DC682506FCD5234CE4686606F8D5CB
:10489000DC68E506FCD500249460547864B2002CF2
:1048A000FBDB224D1D4C656055781C4C6DB2002D14
:1048B000FADB1E6A1E4D35401D621D6A8026B54317
:1048C0001D620323A3601B4B636053785BB2002B14
:1048D000FBDB00230B72184A4B728B72CB72174BA7
:1048E000FF211A60164B174A1B6812685C01D20E32
:1048F000214011439A06520F12020B1C1343124A15
:104900001385436880221343436070BD004000411B
:10491000000400400C06000000080040000C0040AD
:1049200001050100B805FF7D040A0000000703002F
:10493000FFFCFFFF03060100006CDC020800002002
:10494000246080002060800000400042314BFA214A
:10495000186810B5890002F0D1FC2F4B013898423D
:1049600024D82E4A2E4B5060186AC0210002000A3B
:104970000906014319620024072194601160196A35
:1049800080220902090A12060A431A62254BFC21F9
:104990001A6A0A431A62196AFC2292010A431A62CD
:1049A000196AA022D2020A431A6200E0FEE7201C24
:1049B0000021013400F070F8142CF8D11A4C6378FF
:1049C0005BB2002BFADB194B6380194B5A7ED2097C
:1049D000012AFAD0E422D2009A803F22DA70597E6E
:1049E000134AC9090129FAD0C0235B0100201361D1
:1049F000907000F023F863785BB2002BFBDB0D4A6C
:104A0000094B5A800C4BDA79D209012AFAD041229B
:104A10005A7010BD08000020FFFFFF0010E000E00A
:104A200000ED00E000040040000C00401E400000CB
:104A300000400042214000000048004200B5144AF6
:104A4000517E131CC9090129F9D00138042813D853
:104A50001969104A0A401A615A780F218A4302F0F4
:104A600043FC030509070300012102E0032100E0E4
:104A700002210A435A700AE01169F0231B050B4317
:104A8000136153780F218B4302210B43537000BDF8
:104A900000400042FFFFFFF010B51824021C201C4C
:104AA0005043274B1818007A40B2013046D00329F2
:104AB00044D8081C211C02F017FC02331121624368
:104AC00098569A18C3011F4852681B18991840310C
:104AD000022008700121914059602FE062439856EE
:104AE00018499A185268C3015B189918403106207A
:104AF000087001219140596099611FE051435A5655
:104B0000104859184B68D2011118C81840300624B3
:104B100004700120984048600B49521850600DE025
:104B2000624398569A18C301064852681B18991890
:104B300040310220087001219140996010BDC046AB
:104B40004C90000000440041104400411823584399
:104B5000134AF0B5131808241C5701341FD082568D
:104B6000104ED2015D6801249019231C8668AB4069
:104B70001E420BD10E1C771EBE41401934404030FE
:104B8000A50004780426B4432C430470002903D103
:104B900005495218536002E0024E92199361F0BD2C
:104BA0004C90000000440041104400411823584339
:104BB000084A082113185956013109D0825606496E
:104BC000D20152185B68106AD8400123184000E0F7
:104BD000002070474C9000000044004118224243DE
:104BE000F8B52D4D0824AA181457031C621C50D088
:104BF000481C00240C284CD802F076FB071E1E1E11
:104C00001E1E1E1E1E0A0A0A0A000124644240E0FB
:104C1000092902D1181C002103E00A2904D1181C1B
:104C20000221FFF739FF23E000240B2931D1181CA2
:104C30000121FFF731FF2CE018225343EA18526894
:104C4000EB560120141C04405508DB01002C11D048
:104C5000124C1B195D1930352E780C010F21314093
:104C600021439A18C9B22970403213781843107042
:104C700000240EE0094E0F279B195D1930352E7860
:104C80009A18BE433143C9B2297040321378184391
:104C90001070201CF8BDC0464C900000004400413C
:104CA00070B5C2B219495301CB189E68184DC02483
:104CB0002E40A40526439E60164E800109683018D8
:104CC000083258605201505C0726B0430126304339
:104CD00050549E6935402C439C610F4C5C61505C84
:104CE0007024A0431024204350549C680B488A1819
:104CF0002040802464032043986098684021800B02
:104D00008003986053790B43537170BD000A0020F3
:104D1000FFFFFF8F1808002054060020FF3F00F01F
:104D200038B5041C08CC01211A78051C0A431A70F6
:104D30008022201C0021520003F009FF2B689A7882
:104D4000D107FCD45C6238BD134BF0B51B689903E6
:104D50005A029B01C90ED20E5B0F1F2900D10521FB
:104D60001F2A00D11D22072B00D1032304688E01C6
:104D7000278D0A491F2539403143218501682A4082
:104D80000C8DAC4322430A8502681903108D044B35
:104D900003400B431385F0BD246080003FF8FFFF04
:104DA000FF8FFFFFEFF3108303600123436072B6B0
:104DB00070470368002B02D162B6BFF36F8F704754
:104DC00037B50569041C6846002D12D1FFF7EAFFCC
:104DD000019B013B03D3621DD57FEDB2F9E7684625
:104DE0000193FFF7E6FF0020854217D0206AE369B0
:104DF00013E0FFF7D7FF019B0025013B04D3221CE2
:104E000034321578EDB2F8E768460193FFF7D1FF29
:104E10000020854202D0206BE36AC01A3EBD00002C
:104E2000436810B51A68037A01215B01D318FF3378
:104E30009A7A0A439A72037A42685B01D318C2686D
:104E40009C6891040B4A090922400A439A60037A3C
:104E500042685B01D3189A684021920B92039A60D2
:104E600043681A68037A08335B01D3181A790A4336
:104E70001A7110BDFF3F00F0F7B50569041C0E1C48
:104E8000171C6846002D1FD1FFF78CFF019B013BCB
:104E90005A1C06D0621DD17F5A1E00293AD0131C1D
:104EA000F6E768460193FFF784FF0025E369BD42FA
:104EB00035D0226A934232D25A1CE261A269D318D9
:104EC0001B7873550135F1E7FFF76CFF019B013B40
:104ED0005A1C08D0221C343215785A1EEDB2002D0F
:104EE00018D0131CF4E768460193FFF762FF002512
:104EF000E36ABD4226D0226B934241D322E0621D79
:104F00000021D17730321678581E8E4214D1031CFE
:104F10005A1CF4D168460193FFF74BFF38E0226A30
:104F2000934235D10023E361012323616846FFF7F3
:104F300039FF019B013BEBE71170201C0193FFF748
:104F40006FFFF6E7226B934222D10023E3622361D5
:104F50006846FFF727FF019B013B5A1CDAD0221C51
:104F600034320021117001321678581E8E4201D160
:104F7000031CF2E71170201C0193FFF751FFEAE7D1
:104F80005A1CE262A26AD3181B7873550135AFE749
:104F9000281CFEBD37B54368027A1B6808325201EF
:104FA0009A18041CD0790123FF21184253D0D371E1
:104FB000A068656962680140002D20D1490152183E
:104FC000916863618904890C2162A16A6846516015
:104FD000621DD377FFF7E6FE019B013B5A1C33D0DD
:104FE000221C34321178581EC9B20132002903D074
:104FF00001930123137023E01170031CEEE74B01B2
:10500000D3189A68A5699204920C22630022626107
:1050100068465D60FFF7C6FE019B013B01E0117031
:105020002B1C591C10D0221C343201201070621D20
:10503000D17F5D1EC9B230320029F0D001931070CB
:105040006846FFF7B6FE06E068460193FFF7B1FE3B
:10505000201CFFF7E5FE37BD37B500236C46E37132
:105060000734201C0D1C00F0BDFE2B6818182860AA
:1050700000F060FF211C00F017FF2B681818286053
:1050800020783EBD03290BD10D4BB2221B68520084
:10509000985C8021494201439954022168220CE026
:1050A00001290CD1064B92221B685200985C80218A
:1050B00049420143995402212822FF3299547047F2
:1050C000000A002038B5304B00240121051C1A20AD
:1050D0001C70FFF7E1FC1A200121FFF737FD2B4B75
:1050E000192001211C70FFF7D7FC19200121FFF7BF
:1050F0002DFD274B2021DA6901200A43DA61254B77
:1051000006241A7802431A70234B0F221978914310
:10511000197019782143197020490C7820430870C0
:1051200019780A401A701A7860210A431A701C4BC9
:105130001C4A5A805A78D209FCD11B48FFF7D6FA8C
:105140001A4C201CFFF7ECFD201CFFF7FDFD236827
:105150007F2219780A401A701A7804210A431A70BB
:105160001A890C218A431A81C121114A8900505899
:105170000002000A5050802111601A7802210A436F
:105180001A7001232B7038BD14080020FC09002080
:1051900000040040584400413C440041594400414F
:1051A000000C004006400000D95B0000000A00200F
:1051B00000E100E00078002810D0094B01211B68B5
:1051C0001A898A431A811A8B08210A431A831A8B77
:1051D00004210A431A83034B00221A607047C04619
:1051E000000A0020040B00200F4B9A69920B9203D7
:1051F0009A611B680222FF331A7298798022524208
:1052000002439A711A7A9007FCD5084B081C997AC8
:105210007F221040914301439972997A8022524231
:105220000A439A727047C046000A002000500041AD
:1052300010B50B790C1C002B0BD1081C00F0E0FD05
:10524000002804D1094B9A69920B92039A610120BC
:105250000BE000F06FFE211C00F05AFE0028F6D192
:10526000024B9A69920B92039A6110BD000A0020CA
:10527000F8B50D1C832A16D1CAB242495301CB1886
:105280009C694148AD012040C024A4052043986199
:105290003E48083245195D610B685201D15C7020AF
:1052A0008143402065E0022A45D1382000F050FDBE
:1052B000374B344F8026036076000023421D036283
:1052C00003614361C36147608560C660D3772F3255
:1052D000041CC36203631370301C537003F01AFC88
:1052E000A061301C03F016FCFF232A1C1A40520157
:1052F000A062BF18B968244A07260A40C021890560
:105300000A43BA60A168626819401268083149010D
:10531000885CAD00B043032630438854A1686268BE
:105320000B405B01A169D3185960201CFFF778FD81
:10533000184BEC5025E0822A1ED1CAB21149530104
:10534000CB189C691048AD012040C024A40520431F
:1053500098610E48083245195D610B685201991831
:105360000C798020404220430871D15C7020814339
:1053700030200143D15404E0002A02D1081CFFF779
:105380008FFCF8BD000A0020FFFFFF8F54060020AD
:10539000A8940000D809002038B5051C0124064B4C
:1053A000A200D258002A06D0211C281C0134FFF785
:1053B0005FFFE4B2F3E738BD0C00002008B5084BEE
:1053C0008A00D058002803D003689B68984706E0FD
:1053D000C9B2044B4901591888688004800C08BD83
:1053E000D8090020000A002010B50C1CFFF7E6FFCA
:1053F00000280CD0064BE1B21B680831490159184E
:105400004A7980235B4213434B710223CB7110BD59
:10541000000A002070B5CAB2134B14485401890128
:105420005918031959609D6811490832294080258F
:10543000AD022943996099684026890B89039960D8
:105440000368510159180D7935430D7151015918EF
:1054500089794D06FAD551015918C979CD07FAD580
:105460000419A068C0B270BD18080020000A00200E
:10547000FF3F00F038B50C4B141C1B680D1CFF33AC
:105480005A7940210A435A710021FFF7C3FFA04215
:1054900000D9201C0023A34204D0044A9A5CEA5499
:1054A0000133F8E738BDC046000A00201808002084
:1054B00010B5C9B20C48490143189A689204920C7D
:1054C0003F2A08D9141C9A68403CA404920BA40CEF
:1054D0009203224302E09A68920B92039A60411869
:1054E0008868C0B210BDC046000A0020F0B51C1C80
:1054F0002F4B85B01B68061C0D1C0292002B51D04F
:105500002C4F3978C9B2002902D11920FFF71EFBB0
:1055100064233B70284BAA00D058002805D00368AC
:1055200002995B68221C984740E0301C291CFFF759
:1055300045FFA04204D2301C291CFFF73FFF041C8A
:10554000291C301CFFF7B4FF1C4FE9B24A0101913E
:10555000396803928B18FF335A7A01210A4318499C
:105560005A72AB01C9180298221C03F0E7FA002C0A
:105570001BD0301C291CFFF721FF002815D1019BEF
:105580003A6808335B01D318197940200143197137
:105590000121D97103995318FF339A7A01210A43E3
:1055A0009A7202E00120404200E0201C05B0F0BDEC
:1055B000040B0020FC090020D8090020000A00206C
:1055C0001808002013B56C460734221C0123FFF78E
:1055D0008DFF012801D1207801E00120404216BD55
:1055E000F0B51C1C3F4B85B01B680E1C0292002BB3
:1055F0006AD08023DB019C4266D83B4D2978C9B232
:10560000002902D11A20FFF7A1FA642300222B708F
:105610000092002C56D0354DF7B22B6801933B1CFD
:105620000833019A5B01D3189B79DB091AD0304B00
:105630003049186801F062FE2F4B1721584301F0E2
:105640005DFE3B1C0833019A5B01D318DB799A0796
:1056500008D42A4B9A5D002A38D1421E002835D042
:10566000101CEEE7254B00229A55251E3F2D00D930
:105670003F25234AB301D318181C02992A1C03930F
:1056800003F05CFA194A7B01D318039AA9045A6102
:105690009A69890C920B92030A439A613B1C019A06
:1056A00008335B01D3180222DA7159798022524201
:1056B0000A435A71009B029A5B1952190093641BAA
:1056C0000292A6E700980BE0012008E001229A551B
:1056D0007B01ED18AB69101C9B0B9B03AB61404237
:1056E00005B0F0BD040B002014080020000A0020C3
:1056F0000800002040420F00701101004C060020FD
:105700005406002070B50E4D1C1C8B01ED18281C92
:105710000E1C111C221C03F011FAF6B20949760185
:1057200089194D618A69084B201C13408B618B6974
:10573000A2049B0B920C9B0313438B6170BDC0466C
:1057400054060020000A0020FF3F00F0F7B5114B7F
:1057500001901B780F1C141C002B19D10E4B1E78C6
:10576000002E01D1151C08E00C4D0D482E88801923
:10577000361903F0E3F92E800AE0002D08D0BA199B
:105780002B1C01980021FFF7BDFF36182D1AF4E7F6
:10579000201CFEBDF6090020F40900204A06002066
:1057A00049050020F8B50E1C00AF151E012D28D9A3
:1057B000D31DDB08DB006A46D21A9546081C03F0AD
:1057C000B9FA01306C464000032320706370022256
:1057D000AA420ED23378002B0BD0511CC9B201362D
:1057E000A354A94204D0002302326354D2B2EFE79B
:1057F0002A1C0548211CFFF7A9FF431E9841C0B28F
:1058000000E00020BD46F8BDF709002008B5044BB4
:1058100000221A70034B04491A88FFF797FF08BD4E
:10582000F40900204A06002049050020F0B5204A6E
:1058300087B001230026009102A91370051C02966F
:10584000FFF70AFC03AC092701903A1C201C311C0D
:1058500003F07DF902236370A023E371FA2323721E
:10586000029B0122DB196380019B62712371104A44
:10587000009B27701670BB4205D1281C211C1A1CE6
:10588000FFF764FF11E00B4B01221A700A4B211C39
:105890003A1C281C1E800296FFF758FF281C02A9FC
:1058A000FFF7DAFB281CFFF7B1FF012007B0F0BDBE
:1058B000F6090020F40900204A06002070B5CE78D1
:1058C0008AB0051C0C1C022E08D1C9882348FFF79A
:1058D000ADFF031C581E8341D8B23DE000F02AFB07
:1058E000211C00F0F6FA002803D0C3171B1AD80FAA
:1058F00032E0012E04D1E2881949112A27D823E089
:10590000032E29D1A278002A05D11649E2880B7806
:10591000934219D81BE0022A03D1A279281C12490C
:1059200004E0012A05D1A2791049281CFFF73AFFAB
:1059300012E0032A10D100F0FDFA01A900F0D9FA13
:10594000A279281C01A9F1E7D2B2002A00D10A7875
:10595000281CFFF7FBFE01200AB070BDF7090020EC
:10596000C6940000C2940000D8940000B8940000CF
:1059700073B5051C48780C1C0B2878D801F0B4FCD2
:10598000081C7728773E4306474B686F00206FE07E
:10599000097801AA002903D111705170281C09E06F
:1059A000002313705370334B1B78012B00D11370FD
:1059B000281C002102234FE08A780023012A04D109
:1059C00001AA137053702C4BEEE72A4A137049E07A
:1059D0008E78012E07D1284B01AA00211E7011706C
:1059E000281C331C38E0002E08D1224A01231370F2
:1059F000224A9169890B8903916138E0A178281CBA
:105A0000FFF7F2FB33E0281CFFF758FF30E0281CBB
:105A100000211B4A1FE00A780020D30628D1281C49
:105A2000FFF7BAFCA2781549154B02241A600A68E0
:105A30002A23FF33D05C2043D0544A20FF30145C2B
:105A400001231C4314548A69920B92038A610EE06D
:105A50000C4A281C00210123FFF754FE07E08A7836
:105A6000084B1A60054B9A69920B92039A610120C8
:105A700076BDC04648050020F5090020000A002038
:105A8000040B0020F8090020F8B54B4B071C1C78CC
:105A9000002C00D08EE0494D2868838B19070DD566
:105AA000201CFFF7FDF82B6810201A1CFF32917A9A
:105AB00001439172424A146008229A832B689A8BA0
:105AC00050071FD504229A833E4B1A78002A0AD029
:105AD0001A78013AD2B21A701B78002B03D11A201F
:105AE0000121FFF733F8384B1A78002A0AD01A78C8
:105AF000013AD2B21A701B78002B03D11920012170
:105B0000FFF724F82B68FF331A7AD10626D5102226
:105B10001A725A7940210A432C495A710A78602333
:105B2000381C1A4202D1FFF723FF01E0FFF780FB88
:105B3000002806D02B688022FF33997952420A430D
:105B400001E0234B20229A712B68FF331A7A50060A
:105B500004D540221A72597A0A435A722968FE23E0
:105B60000E8C00241E40E1B2002E23D0321C0123F3
:105B700022411A4216D0221C28680832520182188B
:105B8000D079184203D1D279DA401A4207D0114BAA
:105B9000A200D058002809D003681B689847012349
:105BA000A3409E430134092CDDD103E0381CFFF7EC
:105BB00069FAF4E7F8BDC046F4090020000A0020A5
:105BC000040B002014080020FC0900201808002005
:105BD000FF500041D809002008B50248FFF754FFE4
:105BE00008BDC046F7090020014A024B1A60704701
:105BF00000500041000A0020F7B58A18061C0D1C51
:105C000001920C1C019B671B9C4207D033682178D2
:105C10001B68301C984701340028F3D1381CFEBDA6
:105C2000014B18607047C04634000020024B01222F
:105C300052421A607047C04634000020154A13686B
:105C4000581C25D0013B1360002B21D172B6124A9B
:105C5000124B04329A4207D8BFF34F8F104A114BB0
:105C6000DA60BFF34F8F11E00F4B197DC807FBD5EA
:105C7000188B2021FF319208520001431983DA6109
:105C80000A4A1A801A7DD107FCD5E5E7C046FDE730
:105C90007047C046340000200020000003020000CE
:105CA0000400FA0500ED00E00040004102A5FFFFFE
:105CB00010B50021041CA42202F049FF221CA432CA
:105CC0000023201C1360536010BDF8B5051CA435DB
:105CD0002E68041C0F1C701CA42101F053FB231C14
:105CE000A8331B68994201D0A7552960F8BD021C52
:105CF0000023A432A83013600360704738B5021C3B
:105D0000041CA834A43223681268934207D0C55CEF
:105D1000A421581C01F036FB281C216001E0012061
:105D2000404238BD031CA433A8301A680368D01A57
:105D300000D5A4307047031C021CA833A4321B6892
:105D40001268934201D0C05C01E0012040427047DC
:105D500008B502F0DFFE08BD3F20704713B50268AA
:105D60006B46D97107335468191C0122A04716BD30
:105D700008B500690221FFF721FB08BD08B50069DD
:105D80000321FFF731FB08BD38B50D1C041C131CA3
:105D9000006903212A1CFFF723FC002801D10123FD
:105DA000636038BD10B5054C23685A1C04D10368E4
:105DB000DB6898472060031C181C10BD8800002079
:105DC000074A08B51368591C04D0012149421160E3
:105DD000181C03E000690221FFF7F4FB08BDC04670
:105DE0008800002008B5037803490233037042227B
:105DF0000248FFF7ABFC08BD44000020F709002073
:105E000010B50178031C42780020A12908D1212A6D
:105E10002FD1184818490722FFF798FC012028E0E5
:105E2000212926D1202A05D1134907221148FFF73D
:105E300021FB04E0222A10D19A780F4BDA710E4B25
:105E400096221968D200914210D1DC7901231C40BE
:105E50000CD1FA20FFF7E4FE0AE0232A09D1DA7810
:105E60009B7812021A43054B1A6002E0FFF7DEFE30
:105E7000002010BDF709002038000020400000205D
:105E8000064BFA2189009960054900220831196002
:105E900004495A6019611A767047C046080B002001
:105EA000E8940000F709002070B544680E1C002536
:105EB000002C09D02368201C5B68311C98470028FF
:105EC00004DB2D18E468F3E7281C01E001204042C0
:105ED00070BD38B544680D1C002C08D02368201C08
:105EE0009B68291C9847002802D1E468F4E7201C2D
:105EF00038BD38B544680D1C002C07D02368201C21
:105F0000291CDB689847E4682D18F5E72C7038BD2C
:105F100038B544680D1C002C08D02368201C1B6871
:105F2000291C9847002803D1E468F4E7201C00E00E
:105F3000012038BD064B0122196810B511400548F3
:105F400005D1022404700424447041601A6010BD1D
:105F50002C0B0020240B002010B5021C28480B1C21
:105F6000490086B0490881421FDD2648814205DD8F
:105F7000101C191C02F0A2F906B010BD101C191C4F
:105F800002AA00F041F803231840012822D0022879
:105F900014D0002825D0049A059B0298039900F09C
:105FA0006FFA80231B06C918E6E700210091101C38
:105FB000191C124B104A00F09FFFDDE70124049AE0
:105FC000059B02980399009400F096FF80231B061E
:105FD000C918D1E7049A059B0298039900F050FA7A
:105FE000CAE7012402980399049A059B009400F0E3
:105FF00083FFC1E7C046C04600000000000000006B
:10600000FB21E93FFFFFEF7FF0B556464D46444682
:106010005F46F0B44B005E08A34B91B0041C0D1C0E
:1060200091468A469E4200DC86E0A04B9E4223DCDD
:10603000002900DCCEE1291C8C4B8B4A02F03EF992
:106040009B4B041C0D1C9E4200D18FE0884A894B5B
:1060500002F034F9021C0B1C49460A604B60201CFC
:10606000291C02F02BF9824A824B02F027F94A469A
:106070009060D160012067E08E4B9E4200DC91E091
:106080008D4B9E4267DC8D493315C9180B05F51AF7
:106090008B46291C041C02F03BFC02F06DFC021C28
:1060A0000B1C201C291C0A920B9302F007F9724A60
:1060B000724B01F073FE0F1C061C02F029FC02F06B
:1060C0005BFC041C0D1C221C2B1C301C391C0C946A
:1060D0000D9502F0F3F8684A684B01F05FFE684ADC
:1060E000684B0E900F9101F0C9F9002800D192E1A0
:1060F000634A644B201C291C01F0C0F9431E9841DF
:1061000002231B1A022200926D4A0AA801924946F4
:106110005A4600F0D9FA5246002A15DA4C4664680D
:106120008021090663184946CA68802424064B600A
:106130001319CB60404207E0111C14605560504AAF
:10614000504B8A60CB60002011B03CBC9046994611
:10615000A246AB46F0BD221C2B1C02F0AFF84A460B
:106160009060D160106051600020EDE7464A474BD7
:1061700002F0A4F8464A474B041C0D1C02F09EF89E
:10618000021C0B1C49460A604B60201C291C02F0B3
:1061900095F83F4A3F4B02F091F84A469060D16033
:1061A0000120D1E700F054FF3B4A3C4B041C0D1C7E
:1061B00001F0F4FD3A4A3B4B01F08EF902F0A8FBE6
:1061C000834602F0D9FB294B274A0490059101F040
:1061D000E5FD021C0B1C201C291C02F06FF8244A50
:1061E000244B029003910498059901F0D7FD5B467A
:1061F00006900791029803991F2B65DC5A46013AD5
:10620000304B9200D358B3425ED0069A079B02F0FF
:1062100055F80D1C0F1C041C49460C604D6080464F
:1062200042463B1C0298039902F048F8069A079BE5
:1062300002F044F84A46041C0D1C9460D560544694
:10624000031C5846002C00DB7EE744461460802285
:1062500012064C46BF1889186760A360E16040428F
:1062600072E7C046C046C04600004054FB21F93FDB
:106270003163621A61B4D03D00000000000070413B
:1062800000000000000000000000601A61B4D03D72
:106290007370032E8A19A33B83C8C96D305FE43F36
:1062A000000000000000E03FFB21E93F7BD90240F5
:1062B000FB21F93FFB213941FFFFEF7FEAFBFFFFA5
:1062C0009095000010950000069A079B01F0F6FFDC
:1062D0004B00041C0D1C4A4636155B0D80460F1CF6
:1062E00014605560F31A102B9ADD584B564A0498E7
:1062F000059901F053FD041C0D1C221C2B1C029857
:10630000039901F0DBFF08900991089A099B029814
:10631000039901F0D3FF221C2B1C01F0CFFF4C4A44
:106320004C4B041C0D1C0498059901F037FD221CF0
:106330002B1C01F0C3FF06900791069A079B089853
:10634000099901F0BBFF4B460D1C041C1C605D60ED
:106350004B005B0D0F1C80460899099AF31A0291B5
:106360000392312B00DC5BE73B4A3C4B04980599D8
:1063700001F014FD041C0D1C221C2B1C0298039917
:1063800001F09CFF02900391029A039B08980999DF
:1063900001F094FF221C2B1C01F090FF304A314B7E
:1063A000041C0D1C0498059901F0F8FC221C2B1C00
:1063B00001F084FF06900791069A079B02980399C3
:1063C00001F07CFF4A46041C0D1C80460F1C146023
:1063D000556025E7291C244A244B01F07DF8264B03
:1063E000041C0D1C9E4218D0214A224B01F074F867
:1063F000021C0B1C49460A604B60201C291C01F042
:106400005DFF1B4A1B4B01F067F84A469060D16064
:106410000120404298E6032374E60C4B0A4A01F03F
:106420005BF80B4A0B4B041C0D1C01F055F8021CC9
:106430000B1C49460A604B60201C291C01F03EFFE2
:10644000034A044BDFE7C0460000601A61B4D03D48
:106450007370032E8A19A33B0000002E8A19A33BF8
:10646000C14920259A837B3900004054FB21F93F24
:106470003163621A61B4D03DFB21F93FC046C0468A
:10648000F0B5474680B488B0029203934B005B0896
:106490009846894B061C0F1C984563DC02F038FABD
:1064A000002800D1DDE0321C3B1C301C391C01F0FF
:1064B00075FC6E4B6C4A041C0D1C01F06FFC6C4AA1
:1064C0006C4B01F009F8221C2B1C01F067FC6A4A96
:1064D0006A4B01F0F3FE221C2B1C01F05FFC684AA2
:1064E000684B00F0F9FF221C2B1C01F057FC664A98
:1064F000664B01F0E3FE221C2B1C01F04FFC644AAA
:10650000644B00F0E9FF221C2B1C01F047FC0490B7
:106510000591614A614B201C291C01F03FFC049A43
:10652000059B00900191201C291C01F037FC029A68
:10653000039B041C0D1C301C391C01F02FFC021C99
:106540000B1C201C291C01F0B9FE021C0B1C00981E
:10655000019901F0B3FE021C0B1C5148514901F096
:10656000ADFE71E0321C3B1C01F018FC3F4B3E4A73
:10657000041C0D1C01F012FC3D4A3E4B00F0ACFF28
:10658000221C2B1C01F00AFC3B4A3C4B01F096FEFE
:10659000221C2B1C01F002FC394A3A4B00F09CFFF4
:1065A000221C2B1C01F0FAFB374A384B01F086FE07
:1065B000221C2B1C01F0F2FB354A364B00F08CFFFD
:1065C0002B1C221C01F0EAFB3C4B049005919845E2
:1065D0009FDD3B4B98453BDC3A4900220B1C434472
:1065E0002F4830490092019301F068FE0690079110
:1065F000294A2A4B201C291C01F0D0FB009A019B40
:1066000001F05CFE049A059B00900191201C291C5E
:1066100001F0C4FB029A039B041C0D1C301C391CA6
:1066200001F0BCFB021C0B1C201C291C01F046FEC7
:10663000021C0B1C0098019901F040FE021C0B1C6F
:106640000698079901F03AFE08B004BC9046F0BDE8
:10665000154A164B069207931549164A0091019266
:10666000C6E70F480F49EFE7D43888BEE9FAA8BD5E
:10667000C4B1B4BD9EEE213EAD529C804F7E923E91
:106680009015CB19A001FA3E7751C1166CC1563F47
:106690004C5555555555A53F000000000000E03F02
:1066A000000000000000F03F000000000000E73F95
:1066B000000000000000D23FFFFF3F3E3233D33FD7
:1066C0000000E93F0000E0FFF0B556464D46444665
:1066D0005F46F0B48E4C8246A544A89D10938D4B26
:1066E000141CAA00109DD2580E91013DE01E1821E5
:1066F0000C92069500F050FEC343DB171840C343CD
:106700005A00D318DB001B190F90441B0C980B93F5
:106710002F1817D4A998A500E71926AE45190137F7
:1067200007E0286802F028F9013403C60435BC42AA
:1067300008D0002CF5DA01346C496B48043503C6E7
:10674000BC42F6D10C9C002C00DAADE30C9B109CF3
:106750000133DB00E4009EADA34699462B1C5B444D
:10676000E93B002076ACFF3B80460D940493069DE8
:10677000002D00DAACE104980026071C47445B4D6D
:10678000594C50468319186859683A687B6801F07B
:1067900005FB021C0B1C201C291C00F09DFE08366A
:1067A000041C0D1C083F5E45EBD10D9908220B1C03
:1067B000434490441C605D60C845D8D10C9D11AC29
:1067C000AB000894E41811940A950A9C0D9DE3000F
:1067D000EB181E685F68002C38DD231C013BDB00D2
:1067E000ED1812A8A300A846C41855468146049582
:1067F000A2463F4A3F4B301C391C01F0CFFA02F051
:1068000087F802F0B9F83C4A3C4B041C0D1C01F01F
:10681000C5FA021C0B1C301C391C01F04FFD02F0A4
:1068200077F8494604318946043901C1201C4446A1
:10683000291C2268636800F04FFE08256D42061C83
:106840000F1CA844D145D4D104988246301C391C71
:106850000B9A00F0B9FC2A4A2A4B041C0D1C01F0CB
:106860009DFA00F0F9FB284A284B01F097FA021C28
:106870000B1C201C291C01F021FD041C0D1C02F026
:1068800047F8814602F078F8021C0B1C201C291CDA
:1068900001F014FD0B9C061C0F1C002C00DCF9E021
:1068A0000A9A12AD013A9200AB581821091B181C24
:1068B0000841814488401B1AAB5017252D1B2B41E2
:1068C0000993099D002D50DD0A9C0125A944002C47
:1068D00000DC08E1A10012AB8022591800240E4808
:1068E000550423E0C046C046000000000000000040
:1068F000000000000000703E000000000000704139
:10690000000000000000C03F000000000000204028
:1069100084FDFFFF98960000FFFFFF00002A02D0D1
:10692000AA1A1A60012404338B4208D01A68002C7A
:10693000F4D0821A1A60043301248B42F6D10B9DE5
:10694000002D0EDD012D00D1AFE0022D09D10A9BF3
:1069500012AA013B9B00D25812AD02929202920AF7
:10696000EA50099D022D00D17BE0301C391CCB4B35
:10697000C94A00F083FD002800D1B6E00A980C9CBB
:10698000013884420CDC810012AD119C6B1800228E
:106990001D68043B2A43A342FAD1002A00D067E2D3
:1069A0000C9B12A8013B9B00C358002B00D079E23E
:1069B0000C9B0122023B9B00C318043B5968013227
:1069C0000029FAD00A9B0A9C0133A4180A94A34216
:1069D00000DDFAE60F9DA99C5A199200A418069DA5
:1069E000A1460D9CEA18DB00E318109D0A9C049355
:1069F0002B19D20026A8DB0026AD80185D19804631
:106A000009954946086801F0B7FF069C42461060A8
:106A10005160002C22DB47460026A04D9E4C50467C
:106A20008319186859683A687B6801F0B7F9021C45
:106A30000B1C201C291C00F04FFD0836041C0D1CEB
:106A4000083F5E45EBD10499082330C1099C04221C
:106A5000984404919144A045D3D1B6E68F4D8E4C15
:106A6000F1E7321C3B1C8E488E4901F027FC061CC6
:106A70000F1C002C00D178E70B9A8948894900F057
:106A8000A3FB021C0B1C301C391C01F017FC061C5C
:106A90000F1C6AE70B9C002C11D10A9B12A8013B2A
:106AA0009B00C558ED1509950BE70A9B12A8013B01
:106AB0009B00C05812A94202520ACA5051E77A4AB2
:106AC0007A4B00F0FFFC002805D1002409944CE724
:106AD000724D714C69E6022409940A9C0125A9446F
:106AE000002C00DDF6E6002429E70B9D4C466A42A7
:106AF000301C391C0F9400F067FB6D4A6D4B041C71
:106B00000D1C00F0DFFC002800D1D3E16A4A6B4B7A
:106B1000201C291C01F042F901F0FAFE061C0A981B
:106B20008700301C01F028FF614A624B01F036F902
:106B3000021C0B1C201C291C01F0C0FB01F0E8FE0C
:106B40000A9A0B9C904601229044454612A918349B
:106B5000AB00C8510B94CE50514852490B9A00F0EB
:106B600033FB4346041C0D1C002B5CDB0D999E007F
:106B7000DB0012A89B460F1C86195F44306801F0A9
:106B8000FBFE221C2B1C01F009F94B4A4B4B3860D1
:106B90007960201C291C01F001F9089A043E041CAC
:106BA0000D1C083F9642E9D10D9B45461C1C5C44D8
:106BB0000C9A0494013500204EA94446069583465C
:106BC000894692460A945046002860DB3C49049F5F
:106BD0008846324D304C002604E00823984408379C
:106BE0005E4511DC4246106851683A687B6801F0E6
:106BF000D5F8021C0B1C201C291C00F06DFC013672
:106C0000041C0D1CB245E8DA5846C3004B441C6016
:106C10005D60049C0121069D083C8B440494AB45B7
:106C2000D1D10A9A9046A89C022C4BDC002C00DDA6
:106C3000DFE020D14346002B00DA5AE1DC004EAD04
:106C40002C194CAE00250023281C191C22686368EF
:106C500000F042FC083C051C0B1CB442F4D1099C1A
:106C6000191C002C02D08020000619180E9C2A1C2A
:106C70000B1C226063600F9C072020409F239B0019
:106C80009D443CBC90469946A246AB46F0BD034DA0
:106C9000014CB9E7C046C0460000000000000000FB
:106CA000000000000000F03F000000000000E03F96
:106CB0000000000000007041000000000000703E75
:106CC000A8960000A89D032DD5D14046002800DCE1
:106CD0000AE140464EADC00083462B1C5B441E6853
:106CE0005F684346013BA946DB004B444CAC049330
:106CF0000A949A4601E0261C2F1C55462C686D68A4
:106D0000321C201C291C3B1C0694079500F0E4FB58
:106D1000041C0D1C221C2B1C0698079901F0CEFAAE
:106D2000321C3B1C00F0D8FB52469060D16008201A
:106D300040420A998244146055608A45DBD142463C
:106D400000270026012A3ADD4B46049D5B441E685D
:106D50005F68A84601E0261C2F1C45462C686D681C
:106D6000321C201C291C3B1C0494059500F0B4FB2C
:106D7000041C0D1C221C2B1C0498059901F09EFA82
:106D8000321C3B1C00F0A8FB42469060D1600820FA
:106D90004042804414605560C145DCD14C464D46AC
:106DA0005C44083500270026381C311C22686368C3
:106DB00000F092FB083C071C0E1CAC42F4D1099C6D
:106DC000002C00D181E00E9C4E984D4620606D68ED
:106DD000802000062B18494663604846CB68802215
:106DE000120680689B18B618A060E3602761666190
:106DF00041E7424600250024002A10DBD3004EA8BC
:106E0000C6184CAF00250024281C211C326873686A
:106E100000F062FB083E051C0C1CBE42F4D1099A2E
:106E2000211C002A02D080231B06E1180E980B1C9F
:106E30002A1C026043604E984F992A1C231C01F0C3
:106E40003DFA4246002A07DD50ACD50065190CCC4E
:106E500000F042FBAC42FAD1099C002C02D0802504
:106E60002D0649190E9C021C0B1CA260E36002E770
:106E70000B9D804612A843584C46183D0F940B9525
:106E8000002B00D068E64246013A9300C318291C43
:106E900000E0013A043B5D681839002DF9D09046B6
:106EA0000B9159E601228DE5109D76ACED00AB46C5
:106EB0000D9483E40A98291C8600201C01F028FD0B
:106EC0000A9A12A98851904646E60E9C4E984F9910
:106ED0003A1C20606160331C49468868C968226199
:106EE0006361A060E160C6E64EA9002700268946DE
:106EF00065E700250023B2E6F0B589B0049205935A
:106F0000514B4A00061C0F1C52089A4206DC01F045
:106F1000FFFC391C031C301C002B64D0321C3B1CB2
:106F2000301C391C00F03AFF321C3B1C041C0D1CA9
:106F300000F034FF374B364A02900391201C291C85
:106F400000F02CFF344A354B01F0B8F9221C2B1C01
:106F500000F024FF324A334B00F0BEFA221C2B1CF7
:106F600000F01CFF304A314B01F0A8F9221C2B1C09
:106F700000F014FF2E4A2F4B00F0AEFA0E9B069045
:106F80000791002B31D02C4A2C4B0498059900F026
:106F900005FF069A079B009001910298039900F063
:106FA000FDFE021C0B1C0098019901F087F9221CC0
:106FB0002B1C00F0F3FE049A059B01F07FF9204A98
:106FC000204B041C0D1C0298039900F0E7FE021CE4
:106FD0000B1C201C291C00F07FFA021C0B1C301C0F
:106FE000391C01F06BF909B0F0BD069A079B201C13
:106FF000291C00F0D3FE124A124B01F05FF9029AED
:10700000039B00F0CBFE321C3B1C00F065FAEAE764
:107010007CD5CF5A3AD9E53DEB9C2B8AE6E55A3E22
:107020007DFEB157E31DC73ED561C119A0012A3FBE
:10703000A6F810111111813F000000000000E03F90
:10704000495555555555C53FFFFF3F3EC046C046C3
:107050004B0059087047C046F0B556464D46444669
:107060005F46F0B4524A4F007F0D83B0BE18041C37
:107070000D1C89468A4680460197132E2ADC002E75
:1070800056DB4C4F021C37413B1C0B4003439C46D4
:10709000BB4667460B1C002F13D0424B404A00F002
:1070A0001BFA414A414B00F003FA002807D0002D9B
:1070B0004EDB53465F46BB430022994690464B4603
:1070C0004246101C191C03B03CBC90469946A2468F
:1070D000AB46F0BD332E0BDD0B1C8021021CC9001A
:1070E0008E42EED1291C00F0F7F9021C0B1CE8E7D8
:1070F000019F314ABB1801225242DA4093465F4653
:10710000021C0B1C0742DCD0264B254A00F0E4F998
:10711000254A264B00F0CCF90028D0D0002D1DDBED
:1071200042465B469A439046D1464B464246C8E7A4
:107130001C4B1B4A00F0D0F91B4A1C4B00F0B8F95D
:107140000028BCD0002D17DB0027B846B946B6E7AB
:1071500080235B0333415E19B246AAE7142E19D08F
:10716000164B019A9F1A0123BB401B199C420FD951
:107170006F1CBA469846D3E76B005B081C4302D1EC
:107180000027B8469BE70E4F00239846B94696E77E
:107190009846C5E76B1C9A46C2E7C046C046C04643
:1071A0009C7500883CE4377E000000000000000071
:1071B00001FCFFFFFFFF0F00EDFBFFFF33040000AA
:1071C0000000F0BFC046C046F8B53D4E171C331C4A
:1071D0000B40041C0D1C0A1C1B1525D14B005B0821
:1071E00018431ED0201C291C2E4B2D4A00F0D6FD22
:1071F000344B041C0D1C9F4231DB0E4033150A1C1E
:10720000363B3149DB198B4215DD221C2B1C2648ED
:10721000264900F061F8244A244B00F0BFFD041C0D
:107220000D1C291C201CF8BD28498B421ED0264964
:10723000DB198B42E9DC002B05DD25491B050A40E3
:107240001D1C1543EDE7191C353118DA214B9F42FF
:10725000DBDC17481749221C2B1C00F03DF8144AB0
:10726000144B00F09BFD041C0D1CDAE7201C291CAC
:10727000221C2B1C00F030F9041C0D1CD1E7144912
:1072800036331B050A401D1C1543201C291C0A4AC5
:107290000A4B00F083FD041C0D1CC2E7C046C0462B
:1072A00000000000000050439C7500883CE4377EDD
:1072B00059F3F8C21F6EA501000000000000903CC9
:1072C0000000F07FB03CFFFFFE070000FF0700005A
:1072D000FFFF0F8050C3000030B5DA0FD2074B001C
:1072E0005B08111C194330BD02B4714649084900BE
:1072F000095C49008E4402BC7047C046002934D066
:107300000123002210B488422CD301242407A14277
:1073100004D2814202D209011B01F8E7E400A14234
:1073200004D2814202D249005B00F8E7884201D3CF
:10733000401A1A434C08A04202D3001B5C082243A7
:107340008C08A04202D3001B9C082243CC08A04218
:1073500002D3001BDC082243002803D01B0901D004
:107360000909E3E7101C10BC7047002801D0002079
:10737000C04307B4024802A14018029003BDC046B2
:10738000D90000000029F0D003B5FFF7B9FF0EBC0B
:107390004243891A1847C046002941D010B4041C42
:1073A0004C40A44601230022002900D54942002870
:1073B00000D5404288422CD301242407A14204D2A4
:1073C000814202D209011B01F8E7E400A14204D284
:1073D000814202D249005B00F8E7884201D3401A9B
:1073E0001A434C08A04202D3001B5C0822438C08BD
:1073F000A04202D3001B9C082243CC08A04202D327
:10740000001BDC082243002803D01B0901D0090916
:10741000E3E7101C6446002C00D5404210BC7047C6
:10742000002806D003DB0020C043400801E0802094
:10743000000607B4024802A14018029003BDC046EE
:10744000190000000029EBD003B5FFF7A7FF0EBC21
:107450004243891A1847C0467047C0468446101CEC
:1074600062468C46191C634600E0C0461FB500F01A
:1074700017FC002801D40021C8421FBD10B500F040
:1074800047FB4042013010BD10B500F009FC002858
:1074900001DB002010BD012010BDC04610B500F07A
:1074A000FFFB002801DD002010BD012010BDC046FB
:1074B00010B500F077FB002801DC002010BD012092
:1074C00010BDC04610B500F06DFB002801DA0020A9
:1074D00010BD012010BDC046F8B55F465646444673
:1074E0004D46F0B40C034D00CE0F610A440F21430A
:1074F000C400180380465800400D8246D80F8446C9
:107500004046400A530F0343D0006D0D371C83469D
:107510005246664500D19DE0AF1A002F00DC03E122
:10752000002A38D1184300D0E4E0630709D00F23C4
:107530002340042B05D0231DA342A4416442091912
:107540001C1C080200D478E0CE4B6A1C9A4200D181
:1075500005E1CD4BE40819404807520549020443B0
:107560000B0B520D371C002000211B03201C1C0B91
:107570000B0D1B05C54D2343520552081D401543F5
:107580006D006D08FF07291C39433CBC90469946A5
:10759000A246AB46F8BDBB488542C6D08020000459
:1075A0000343382F00DDECE01F2F00DD20E1202019
:1075B000C01B1A1C814682405846F840024394463C
:1075C00058464A469040421E9041FB406246024364
:1075D0001F1CA21A9442A4416442C91B091B141C1B
:1075E0000B02A2D549024F0A002F00D1C4E0381C7B
:1075F00001F034FA021C083A1F2A00DDB7E0282106
:10760000091A201C9740C84007439440954200DD6A
:10761000A9E0551B691C1F2900DDD8E01F22551B5E
:107620003B1C221CAB40CA40AC40651EAC4113431E
:10763000CF401C43391C002577E74807E4086A055A
:10764000C908520D371C04438E4B9D4248D0090394
:107650000B0B88E7AA1A9446002A00DC98E05046F3
:10766000002853D08748854200D15EE7802000047F
:1076700003436246382A00DDFDE01F2A00DD4BE1AE
:1076800020226046101A1A1C8240824691465846B3
:107690006246D0404A460243904658465246904081
:1076A000421E9041424602436046C3401219A24224
:1076B000A441644259180919141C080200D434E783
:1076C000704B01359D4200D124E16F4B6008194099
:1076D000012323401C1C0443CB071C43490824E717
:1076E0000B1C234300D1C7E180231B030B431B0367
:1076F0001B0B38E7013F002F64D15846221A9442F1
:10770000A4416442C91A091B141C69E7584618436E
:1077100000D10AE70122524294446046002800D07A
:10772000C5E058460219C2E7002F72D1681C400517
:10773000400D012800DCDEE05A46A21A9442BF4107
:10774000C81A7F42C71B380200D488E05A46141B6F
:10775000A3459241591A52428F1A664644E7371C94
:1077600000230024FFE64849AD1A3940DDE6271C16
:1077700028388740002449E7201C01F06FF92030A9
:1077800038E75A461A43531E9A41D2B2002720E7DF
:10779000002A00D0DDE0681C4205520D012A00DC01
:1077A0008EE0384DA84200D1B3E05D462A19A242CE
:1077B000A441644259180919CC07520814434908D6
:1077C000051CB2E62F48854200D0EAE6ADE62B1C48
:1077D0001F3B3A1CDA40131C20296DD03F22551B59
:1077E000AF403C43601E84411C43002100259CE6C1
:1077F000381C20381A1CC240101C202F5ED040229A
:10780000D71BBB405A461A43531E9A4102430027D6
:10781000DFE6002D3CD01B4DAA4500D194E0802529
:107820002D047F422943382F00DDADE01F2F00DDFE
:107830002CE12025ED1B081C261CA840FE40AC4076
:107840000643651EAC413443F9405D462C1BA345FD
:1078500092415B1A5242991A55466646C0E6131C7D
:107860003B43141C002B00D0BEE60027002200255D
:1078700000210024E8E65A461A43531E9A41D2B228
:10788000002313E7FF070000FFFF7FFFFFFF0F80CC
:107890000D1C254358D0FF43002F51D1041BA34595
:1078A0009241591A5242891A5546664698E69648B8
:1078B000854200D0DDE638E6002792E70023A1E705
:1078C000081C2043002D00D0C0E0002800D1FBE0C0
:1078D0005846184300D128E658460219A242A4414E
:1078E000644259180919141C0A0200D41DE6874B7A
:1078F0000125194019E6081C2043002D39D1002824
:107900006DD15946194300D1BDE0191C5C4666464D
:107910000BE6051C2A1CABE7604620381A1CC24047
:1079200060469146202800D1ABE04022121A9340D5
:107930005A461A43531E9A414B461A430023B5E652
:10794000714DAA4500D06EE7191C5C465546664647
:10795000EBE5002D1ED10D1C254373D0D543002D22
:107960006DD15C445C459241591852428918554684
:10797000A3E6002849D15946194300D196E0191CC5
:107980005C466646604DD0E50C43611E8C41E4B216
:1079900000215AE75C4DAA4554D05542802210047C
:1079A0000143382D00DD85E01F2D00DD95E020220C
:1079B000501B0A1C84468240201CE840024390462B
:1079C00062469440601E844142461443E9405C4450
:1079D0005C459241CB185242991855466DE658467F
:1079E000184300D1A1E55846271ABC429241C81A53
:1079F0005242801A02026AD55846041BA34592419E
:107A0000591A5242891A66468FE55846184336D0AD
:107A10004807E40804438020C9080003014208D055
:107A2000DD08054205D15946CA085C071443291CE4
:107A30006646630FC9001943E400334D75E5324AC9
:107A40009245AED1191C5C4655466EE5002837D0EC
:107A50005846184313D080254807E408C9082D0369
:107A600004432942E5D0D8082842E2D15D46EA081D
:107A70005C071443011CDCE70023002473E5224D5E
:107A800053E5002354E700270022F1E63D1C203D8A
:107A90000A1CEA40151C202F31D04026F71BB940A4
:107AA0000C43611E8C412C430021CEE6164A002770
:107AB000151CDDE60C43611E8C41E4B2002186E713
:107AC000191C5C46104D30E5191C5C462DE5031C65
:107AD0003B43D8D0011C3C1C27E5202040424019E4
